{
  "contractName": "startupInfo",
  "abi": [
    {
      "inputs": [
        {
          "internalType": "uint256",
          "name": "minimumAmount",
          "type": "uint256"
        },
        {
          "internalType": "address",
          "name": "founderAddress",
          "type": "address"
        },
        {
          "internalType": "uint256",
          "name": "fundGoals",
          "type": "uint256"
        }
      ],
      "stateMutability": "nonpayable",
      "type": "constructor"
    },
    {
      "inputs": [
        {
          "internalType": "uint256",
          "name": "",
          "type": "uint256"
        }
      ],
      "name": "companyInfo",
      "outputs": [
        {
          "internalType": "string",
          "name": "nameOfCompany",
          "type": "string"
        },
        {
          "internalType": "string",
          "name": "nameOfFounder",
          "type": "string"
        },
        {
          "internalType": "bool",
          "name": "launchedMVP",
          "type": "bool"
        },
        {
          "internalType": "bool",
          "name": "incomeGenerating",
          "type": "bool"
        },
        {
          "internalType": "uint256",
          "name": "numberOfEmployees",
          "type": "uint256"
        },
        {
          "internalType": "string",
          "name": "reasonForRaise",
          "type": "string"
        },
        {
          "internalType": "string",
          "name": "additionalInfo",
          "type": "string"
        }
      ],
      "stateMutability": "view",
      "type": "function"
    },
    {
      "inputs": [
        {
          "internalType": "address",
          "name": "",
          "type": "address"
        }
      ],
      "name": "contributors",
      "outputs": [
        {
          "internalType": "uint256",
          "name": "",
          "type": "uint256"
        }
      ],
      "stateMutability": "view",
      "type": "function"
    },
    {
      "inputs": [
        {
          "internalType": "address",
          "name": "",
          "type": "address"
        }
      ],
      "name": "each_company",
      "outputs": [
        {
          "internalType": "address",
          "name": "name",
          "type": "address"
        },
        {
          "internalType": "uint256",
          "name": "totalRaised",
          "type": "uint256"
        },
        {
          "internalType": "uint256",
          "name": "totalCount",
          "type": "uint256"
        }
      ],
      "stateMutability": "view",
      "type": "function"
    },
    {
      "inputs": [],
      "name": "founder",
      "outputs": [
        {
          "internalType": "address",
          "name": "",
          "type": "address"
        }
      ],
      "stateMutability": "view",
      "type": "function"
    },
    {
      "inputs": [],
      "name": "fundingGoal",
      "outputs": [
        {
          "internalType": "uint256",
          "name": "",
          "type": "uint256"
        }
      ],
      "stateMutability": "view",
      "type": "function"
    },
    {
      "inputs": [],
      "name": "minCheckSize",
      "outputs": [
        {
          "internalType": "uint256",
          "name": "",
          "type": "uint256"
        }
      ],
      "stateMutability": "view",
      "type": "function"
    },
    {
      "inputs": [],
      "name": "numRequests",
      "outputs": [
        {
          "internalType": "uint256",
          "name": "",
          "type": "uint256"
        }
      ],
      "stateMutability": "view",
      "type": "function"
    },
    {
      "inputs": [
        {
          "internalType": "uint256",
          "name": "",
          "type": "uint256"
        }
      ],
      "name": "requestFunds",
      "outputs": [
        {
          "internalType": "string",
          "name": "description",
          "type": "string"
        },
        {
          "internalType": "uint256",
          "name": "value",
          "type": "uint256"
        },
        {
          "internalType": "address payable",
          "name": "recipient",
          "type": "address"
        },
        {
          "internalType": "bool",
          "name": "complete",
          "type": "bool"
        },
        {
          "internalType": "uint8",
          "name": "approvalsCount",
          "type": "uint8"
        }
      ],
      "stateMutability": "view",
      "type": "function"
    },
    {
      "inputs": [
        {
          "internalType": "string",
          "name": "nameOfCompany",
          "type": "string"
        },
        {
          "internalType": "string",
          "name": "nameOfFounder",
          "type": "string"
        },
        {
          "internalType": "bool",
          "name": "launchedMVP",
          "type": "bool"
        },
        {
          "internalType": "bool",
          "name": "incomeGenerating",
          "type": "bool"
        },
        {
          "internalType": "uint256",
          "name": "numberOfEmployees",
          "type": "uint256"
        },
        {
          "internalType": "string",
          "name": "reasonForRaise",
          "type": "string"
        },
        {
          "internalType": "string",
          "name": "additionalInfo",
          "type": "string"
        }
      ],
      "name": "create_Company",
      "outputs": [],
      "stateMutability": "nonpayable",
      "type": "function"
    },
    {
      "inputs": [
        {
          "internalType": "uint256",
          "name": "minimumAmount",
          "type": "uint256"
        },
        {
          "internalType": "uint256",
          "name": "fundGoals",
          "type": "uint256"
        }
      ],
      "name": "startUpFundingAmount",
      "outputs": [],
      "stateMutability": "nonpayable",
      "type": "function"
    },
    {
      "inputs": [
        {
          "internalType": "address",
          "name": "to",
          "type": "address"
        }
      ],
      "name": "contribute",
      "outputs": [],
      "stateMutability": "payable",
      "type": "function"
    },
    {
      "inputs": [
        {
          "internalType": "string",
          "name": "description",
          "type": "string"
        },
        {
          "internalType": "uint256",
          "name": "value",
          "type": "uint256"
        },
        {
          "internalType": "address payable",
          "name": "recipient",
          "type": "address"
        }
      ],
      "name": "createWithdrawalRequest",
      "outputs": [],
      "stateMutability": "nonpayable",
      "type": "function"
    },
    {
      "inputs": [
        {
          "internalType": "uint256",
          "name": "id",
          "type": "uint256"
        }
      ],
      "name": "approveRequest",
      "outputs": [],
      "stateMutability": "nonpayable",
      "type": "function"
    },
    {
      "inputs": [
        {
          "internalType": "uint256",
          "name": "id",
          "type": "uint256"
        }
      ],
      "name": "finaliseRequest",
      "outputs": [],
      "stateMutability": "payable",
      "type": "function"
    }
  ],
  "bytecode": "0x60806040523480156200001157600080fd5b506040516200200b3803806200200b833981810160405281019062000037919062000179565b8281116200007c576040517f08c379a000000000000000000000000000000000000000000000000000000000815260040162000073906200025c565b60405180910390fd5b826004819055508060068190555081600360006101000a81548173ffffffffffffffffffffffffffffffffffffffff021916908373ffffffffffffffffffffffffffffffffffffffff1602179055505050506200027e565b600080fd5b6000819050919050565b620000ee81620000d9565b8114620000fa57600080fd5b50565b6000815190506200010e81620000e3565b92915050565b600073ffffffffffffffffffffffffffffffffffffffff82169050919050565b6000620001418262000114565b9050919050565b620001538162000134565b81146200015f57600080fd5b50565b600081519050620001738162000148565b92915050565b600080600060608486031215620001955762000194620000d4565b5b6000620001a586828701620000fd565b9350506020620001b88682870162000162565b9250506040620001cb86828701620000fd565b9150509250925092565b600082825260208201905092915050565b7f596f75722066756e64696e6720676f616c2073686f756c64206265206d6f726560008201527f207468616e20746865206d696e696d756d20616d6f756e740000000000000000602082015250565b600062000244603883620001d5565b91506200025182620001e6565b604082019050919050565b60006020820190508181036000830152620002778162000235565b9050919050565b611d7d806200028e6000396000f3fe6080604052600436106100dd5760003560e01c80639fb42b1f1161007f578063ab2ab18011610059578063ab2ab180146102bb578063bf3bd25d146102e4578063d7d1bbdb14610325578063e7b668b41461034e576100dd565b80639fb42b1f1461020e578063a885a41a14610239578063a950628c14610278576100dd565b8063455d0243116100bb578063455d0243146101735780634d853ee51461019c57806373e888fd146101c75780637a3a0e84146101e3576100dd565b806312a141e2146100e25780631f6d49421461010d57806322d0fb9a1461014a575b600080fd5b3480156100ee57600080fd5b506100f761036a565b6040516101049190611068565b60405180910390f35b34801561011957600080fd5b50610134600480360381019061012f91906110f5565b610370565b6040516101419190611068565b60405180910390f35b34801561015657600080fd5b50610171600480360381019061016c91906111f1565b610388565b005b34801561017f57600080fd5b5061019a60048036038101906101959190611265565b610498565b005b3480156101a857600080fd5b506101b1610546565b6040516101be91906112b4565b60405180910390f35b6101e160048036038101906101dc91906110f5565b61056c565b005b3480156101ef57600080fd5b506101f8610860565b6040516102059190611068565b60405180910390f35b34801561021a57600080fd5b50610223610866565b6040516102309190611068565b60405180910390f35b34801561024557600080fd5b50610260600480360381019061025b91906110f5565b61086c565b60405161026f939291906112cf565b60405180910390f35b34801561028457600080fd5b5061029f600480360381019061029a9190611306565b6108b6565b6040516102b297969594939291906113de565b60405180910390f35b3480156102c757600080fd5b506102e260048036038101906102dd91906115c5565b610b42565b005b3480156102f057600080fd5b5061030b60048036038101906103069190611306565b610c57565b60405161031c959493929190611702565b60405180910390f35b34801561033157600080fd5b5061034c60048036038101906103479190611306565b610d4f565b005b61036860048036038101906103639190611306565b610ea3565b005b60045481565b60056020528060005260406000206000915090505481565b600360009054906101000a900473ffffffffffffffffffffffffffffffffffffffff1673ffffffffffffffffffffffffffffffffffffffff163373ffffffffffffffffffffffffffffffffffffffff16146103e257600080fd5b600060016000600754815260200190815260200160002090506007600081548092919061040e9061178b565b919050555084848260000191826104269291906119ea565b50828160010181905550818160020160006101000a81548173ffffffffffffffffffffffffffffffffffffffff021916908373ffffffffffffffffffffffffffffffffffffffff16021790555060008160020160156101000a81548160ff021916908360ff1602179055505050505050565b600360009054906101000a900473ffffffffffffffffffffffffffffffffffffffff1673ffffffffffffffffffffffffffffffffffffffff163373ffffffffffffffffffffffffffffffffffffffff16146104f257600080fd5b818111610534576040517f08c379a000000000000000000000000000000000000000000000000000000000815260040161052b90611b2c565b60405180910390fd5b81600481905550806006819055505050565b600360009054906101000a900473ffffffffffffffffffffffffffffffffffffffff1681565b60045434116105b0576040517f08c379a00000000000000000000000000000000000000000000000000000000081526004016105a790611b98565b60405180910390fd5b600360009054906101000a900473ffffffffffffffffffffffffffffffffffffffff1673ffffffffffffffffffffffffffffffffffffffff168173ffffffffffffffffffffffffffffffffffffffff161461060a57600080fd5b6001600560003373ffffffffffffffffffffffffffffffffffffffff1673ffffffffffffffffffffffffffffffffffffffff16815260200190815260200160002081905550346000808373ffffffffffffffffffffffffffffffffffffffff1673ffffffffffffffffffffffffffffffffffffffff1681526020019081526020016000206002015461069c9190611bb8565b6000808373ffffffffffffffffffffffffffffffffffffffff1673ffffffffffffffffffffffffffffffffffffffff16815260200190815260200160002060020181905550346000808373ffffffffffffffffffffffffffffffffffffffff1673ffffffffffffffffffffffffffffffffffffffff16815260200190815260200160002060010160003373ffffffffffffffffffffffffffffffffffffffff1673ffffffffffffffffffffffffffffffffffffffff16815260200190815260200160002081905550600360009054906101000a900473ffffffffffffffffffffffffffffffffffffffff166000808373ffffffffffffffffffffffffffffffffffffffff1673ffffffffffffffffffffffffffffffffffffffff16815260200190815260200160002060000160006101000a81548173ffffffffffffffffffffffffffffffffffffffff021916908373ffffffffffffffffffffffffffffffffffffffff1602179055506000808273ffffffffffffffffffffffffffffffffffffffff1673ffffffffffffffffffffffffffffffffffffffff16815260200190815260200160002060030160008154809291906108589061178b565b919050555050565b60065481565b60075481565b60006020528060005260406000206000915090508060000160009054906101000a900473ffffffffffffffffffffffffffffffffffffffff16908060020154908060030154905083565b600281815481106108c657600080fd5b90600052602060002090600602016000915090508060000180546108e99061180d565b80601f01602080910402602001604051908101604052809291908181526020018280546109159061180d565b80156109625780601f1061093757610100808354040283529160200191610962565b820191906000526020600020905b81548152906001019060200180831161094557829003601f168201915b5050505050908060010180546109779061180d565b80601f01602080910402602001604051908101604052809291908181526020018280546109a39061180d565b80156109f05780601f106109c5576101008083540402835291602001916109f0565b820191906000526020600020905b8154815290600101906020018083116109d357829003601f168201915b5050505050908060020160009054906101000a900460ff16908060020160019054906101000a900460ff1690806003015490806004018054610a319061180d565b80601f0160208091040260200160405190810160405280929190818152602001828054610a5d9061180d565b8015610aaa5780601f10610a7f57610100808354040283529160200191610aaa565b820191906000526020600020905b815481529060010190602001808311610a8d57829003601f168201915b505050505090806005018054610abf9061180d565b80601f0160208091040260200160405190810160405280929190818152602001828054610aeb9061180d565b8015610b385780601f10610b0d57610100808354040283529160200191610b38565b820191906000526020600020905b815481529060010190602001808311610b1b57829003601f168201915b5050505050905087565b60006040518060e001604052808981526020018881526020018715158152602001861515815260200185815260200184815260200183815250905060028190806001815401808255809150506001900390600052602060002090600602016000909190919091506000820151816000019081610bbe9190611bec565b506020820151816001019081610bd49190611bec565b5060408201518160020160006101000a81548160ff02191690831515021790555060608201518160020160016101000a81548160ff0219169083151502179055506080820151816003015560a0820151816004019081610c349190611bec565b5060c0820151816005019081610c4a9190611bec565b5050505050505050505050565b6001602052806000526040600020600091509050806000018054610c7a9061180d565b80601f0160208091040260200160405190810160405280929190818152602001828054610ca69061180d565b8015610cf35780601f10610cc857610100808354040283529160200191610cf3565b820191906000526020600020905b815481529060010190602001808311610cd657829003601f168201915b5050505050908060010154908060020160009054906101000a900473ffffffffffffffffffffffffffffffffffffffff16908060020160149054906101000a900460ff16908060020160159054906101000a900460ff16905085565b60006001600083815260200190815260200160002090508060030160003373ffffffffffffffffffffffffffffffffffffffff1673ffffffffffffffffffffffffffffffffffffffff16815260200190815260200160002060009054906101000a900460ff1615610dbf57600080fd5b6000600560003373ffffffffffffffffffffffffffffffffffffffff1673ffffffffffffffffffffffffffffffffffffffff1681526020019081526020016000205411610e0b57600080fd5b60018160030160003373ffffffffffffffffffffffffffffffffffffffff1673ffffffffffffffffffffffffffffffffffffffff16815260200190815260200160002060006101000a81548160ff02191690831515021790555080600201601581819054906101000a900460ff1680929190610e8690611cbe565b91906101000a81548160ff021916908360ff160217905550505050565b600360009054906101000a900473ffffffffffffffffffffffffffffffffffffffff1673ffffffffffffffffffffffffffffffffffffffff163373ffffffffffffffffffffffffffffffffffffffff1614610efd57600080fd5b60006001600083815260200190815260200160002090508060020160149054906101000a900460ff1615610f3057600080fd5b6002600080600360009054906101000a900473ffffffffffffffffffffffffffffffffffffffff1673ffffffffffffffffffffffffffffffffffffffff1673ffffffffffffffffffffffffffffffffffffffff16815260200190815260200160002060030154610fa09190611d16565b8160020160159054906101000a900460ff1660ff1611610fbf57600080fd5b60018160020160146101000a81548160ff0219169083151502179055508060020160009054906101000a900473ffffffffffffffffffffffffffffffffffffffff1673ffffffffffffffffffffffffffffffffffffffff166108fc82600101549081150290604051600060405180830381858888f1935050505015801561104a573d6000803e3d6000fd5b505050565b6000819050919050565b6110628161104f565b82525050565b600060208201905061107d6000830184611059565b92915050565b6000604051905090565b600080fd5b600080fd5b600073ffffffffffffffffffffffffffffffffffffffff82169050919050565b60006110c282611097565b9050919050565b6110d2816110b7565b81146110dd57600080fd5b50565b6000813590506110ef816110c9565b92915050565b60006020828403121561110b5761110a61108d565b5b6000611119848285016110e0565b91505092915050565b600080fd5b600080fd5b600080fd5b60008083601f84011261114757611146611122565b5b8235905067ffffffffffffffff81111561116457611163611127565b5b6020830191508360018202830111156111805761117f61112c565b5b9250929050565b6111908161104f565b811461119b57600080fd5b50565b6000813590506111ad81611187565b92915050565b60006111be82611097565b9050919050565b6111ce816111b3565b81146111d957600080fd5b50565b6000813590506111eb816111c5565b92915050565b6000806000806060858703121561120b5761120a61108d565b5b600085013567ffffffffffffffff81111561122957611228611092565b5b61123587828801611131565b945094505060206112488782880161119e565b9250506040611259878288016111dc565b91505092959194509250565b6000806040838503121561127c5761127b61108d565b5b600061128a8582860161119e565b925050602061129b8582860161119e565b9150509250929050565b6112ae816110b7565b82525050565b60006020820190506112c960008301846112a5565b92915050565b60006060820190506112e460008301866112a5565b6112f16020830185611059565b6112fe6040830184611059565b949350505050565b60006020828403121561131c5761131b61108d565b5b600061132a8482850161119e565b91505092915050565b600081519050919050565b600082825260208201905092915050565b60005b8381101561136d578082015181840152602081019050611352565b60008484015250505050565b6000601f19601f8301169050919050565b600061139582611333565b61139f818561133e565b93506113af81856020860161134f565b6113b881611379565b840191505092915050565b60008115159050919050565b6113d8816113c3565b82525050565b600060e08201905081810360008301526113f8818a61138a565b9050818103602083015261140c818961138a565b905061141b60408301886113cf565b61142860608301876113cf565b6114356080830186611059565b81810360a0830152611447818561138a565b905081810360c083015261145b818461138a565b905098975050505050505050565b600080fd5b7f4e487b7100000000000000000000000000000000000000000000000000000000600052604160045260246000fd5b6114a682611379565b810181811067ffffffffffffffff821117156114c5576114c461146e565b5b80604052505050565b60006114d8611083565b90506114e4828261149d565b919050565b600067ffffffffffffffff8211156115045761150361146e565b5b61150d82611379565b9050602081019050919050565b82818337600083830152505050565b600061153c611537846114e9565b6114ce565b90508281526020810184848401111561155857611557611469565b5b61156384828561151a565b509392505050565b600082601f8301126115805761157f611122565b5b8135611590848260208601611529565b91505092915050565b6115a2816113c3565b81146115ad57600080fd5b50565b6000813590506115bf81611599565b92915050565b600080600080600080600060e0888a0312156115e4576115e361108d565b5b600088013567ffffffffffffffff81111561160257611601611092565b5b61160e8a828b0161156b565b975050602088013567ffffffffffffffff81111561162f5761162e611092565b5b61163b8a828b0161156b565b965050604061164c8a828b016115b0565b955050606061165d8a828b016115b0565b945050608061166e8a828b0161119e565b93505060a088013567ffffffffffffffff81111561168f5761168e611092565b5b61169b8a828b0161156b565b92505060c088013567ffffffffffffffff8111156116bc576116bb611092565b5b6116c88a828b0161156b565b91505092959891949750929550565b6116e0816111b3565b82525050565b600060ff82169050919050565b6116fc816116e6565b82525050565b600060a082019050818103600083015261171c818861138a565b905061172b6020830187611059565b61173860408301866116d7565b61174560608301856113cf565b61175260808301846116f3565b9695505050505050565b7f4e487b7100000000000000000000000000000000000000000000000000000000600052601160045260246000fd5b60006117968261104f565b91507fffffffffffffffffffffffffffffffffffffffffffffffffffffffffffffffff82036117c8576117c761175c565b5b600182019050919050565b600082905092915050565b7f4e487b7100000000000000000000000000000000000000000000000000000000600052602260045260246000fd5b6000600282049050600182168061182557607f821691505b602082108103611838576118376117de565b5b50919050565b60008190508160005260206000209050919050565b60006020601f8301049050919050565b600082821b905092915050565b6000600883026118a07fffffffffffffffffffffffffffffffffffffffffffffffffffffffffffffffff82611863565b6118aa8683611863565b95508019841693508086168417925050509392505050565b6000819050919050565b60006118e76118e26118dd8461104f565b6118c2565b61104f565b9050919050565b6000819050919050565b611901836118cc565b61191561190d826118ee565b848454611870565b825550505050565b600090565b61192a61191d565b6119358184846118f8565b505050565b5b818110156119595761194e600082611922565b60018101905061193b565b5050565b601f82111561199e5761196f8161183e565b61197884611853565b81016020851015611987578190505b61199b61199385611853565b83018261193a565b50505b505050565b600082821c905092915050565b60006119c1600019846008026119a3565b1980831691505092915050565b60006119da83836119b0565b9150826002028217905092915050565b6119f483836117d3565b67ffffffffffffffff811115611a0d57611a0c61146e565b5b611a17825461180d565b611a2282828561195d565b6000601f831160018114611a515760008415611a3f578287013590505b611a4985826119ce565b865550611ab1565b601f198416611a5f8661183e565b60005b82811015611a8757848901358255600182019150602085019450602081019050611a62565b86831015611aa45784890135611aa0601f8916826119b0565b8355505b6001600288020188555050505b50505050505050565b7f596f75722066756e64696e6720676f616c2073686f756c64206265206d6f726560008201527f207468616e20746865206d696e696d756d20616d6f756e740000000000000000602082015250565b6000611b1660388361133e565b9150611b2182611aba565b604082019050919050565b60006020820190508181036000830152611b4581611b09565b9050919050565b7f496e73756666696369656e7420616d6f756e7400000000000000000000000000600082015250565b6000611b8260138361133e565b9150611b8d82611b4c565b602082019050919050565b60006020820190508181036000830152611bb181611b75565b9050919050565b6000611bc38261104f565b9150611bce8361104f565b9250828201905080821115611be657611be561175c565b5b92915050565b611bf582611333565b67ffffffffffffffff811115611c0e57611c0d61146e565b5b611c18825461180d565b611c2382828561195d565b600060209050601f831160018114611c565760008415611c44578287015190505b611c4e85826119ce565b865550611cb6565b601f198416611c648661183e565b60005b82811015611c8c57848901518255600182019150602085019450602081019050611c67565b86831015611ca95784890151611ca5601f8916826119b0565b8355505b6001600288020188555050505b505050505050565b6000611cc9826116e6565b915060ff8203611cdc57611cdb61175c565b5b600182019050919050565b7f4e487b7100000000000000000000000000000000000000000000000000000000600052601260045260246000fd5b6000611d218261104f565b9150611d2c8361104f565b925082611d3c57611d3b611ce7565b5b82820490509291505056fea26469706673582212205c0781c11943eb1aeff15cc7566927c015e9a23e682707d7cb1d37cf4435ddb064736f6c63430008110033",
  "immutableReferences": {},
  "source": "//Usama Khatab, Abdullah Usman, Ahmed Rohan\r\n//SPDX-License-Identifier: GPL-3.0\r\npragma solidity ^0.8.2 ; \r\n\r\n\r\ncontract startupInfo{\r\n    struct CompanyDetails{\r\n        string nameOfCompany;\r\n        string nameOfFounder;\r\n        bool launchedMVP;\r\n        bool incomeGenerating;\r\n        uint numberOfEmployees;\r\n        string reasonForRaise;\r\n        string additionalInfo;\r\n    \r\n    }\r\n    struct AllCompanies{\r\n        address name;\r\n        mapping(address => uint)  investors;\r\n        uint totalRaised;\r\n        uint totalCount;\r\n    }\r\n    mapping (address => AllCompanies) public each_company;\r\n    struct RequestToSpendRaisedMoney{\r\n        string description;\r\n        uint value;\r\n        address payable recipient;\r\n        bool complete;\r\n        uint8 approvalsCount;\r\n        mapping(address => bool) approvedTheRequest;\r\n      \r\n    }\r\n    //RequestToSpendRaisedMoney[] public requestFunds;\r\n    mapping(uint => RequestToSpendRaisedMoney) public requestFunds;\r\n    CompanyDetails[] public companyInfo;\r\n    address public founder;\r\n    uint public minCheckSize;\r\n    mapping(address => uint) public contributors; // this is same as investors, it just allows us store investors and access it in the approveRequest function\r\n\r\n    uint public fundingGoal;\r\n    uint public numRequests; // keeps track of number of requests\r\n  \r\n    modifier restrictAccess(){\r\n        require (msg.sender == founder);\r\n        _;\r\n    }\r\n    //this function uses the struct created earlier to get the details of the company\r\n   constructor  (uint minimumAmount, address founderAddress, uint fundGoals){\r\n         require(fundGoals > minimumAmount, \"Your funding goal should be more than the minimum amount\"); // the funding goal must be greater than the minimum check size       \r\n        //require(msg.sender == founder);\r\n        //founder = msg.sender;\r\n        minCheckSize =minimumAmount;\r\n        fundingGoal= fundGoals; \r\n       founder = founderAddress;\r\n   }\r\n   \r\n   function create_Company (string memory nameOfCompany, string memory nameOfFounder, bool  launchedMVP, bool incomeGenerating, uint numberOfEmployees, string memory reasonForRaise, string memory additionalInfo) public{\r\n        CompanyDetails memory newDetails = CompanyDetails({\r\n            nameOfCompany: nameOfCompany,\r\n            nameOfFounder: nameOfFounder,\r\n            launchedMVP: launchedMVP,\r\n            incomeGenerating: incomeGenerating,\r\n            numberOfEmployees: numberOfEmployees,\r\n            reasonForRaise: reasonForRaise,\r\n    \r\n            additionalInfo: additionalInfo\r\n        });\r\n        companyInfo.push(newDetails);\r\n        //founder = msg.sender;\r\n        \r\n    }\r\n\r\n    function startUpFundingAmount(uint minimumAmount ,  uint fundGoals) public restrictAccess{\r\n        require(fundGoals > minimumAmount, \"Your funding goal should be more than the minimum amount\"); // the funding goal must be greater than the minimum check size       \r\n        //require(msg.sender == founder);\r\n        //founder = msg.sender;\r\n        minCheckSize =minimumAmount;\r\n        fundingGoal= fundGoals ;\r\n\r\n    }\r\n\r\n    function contribute(address to) public payable{\r\n        require(msg.value > minCheckSize, \"Insufficient amount\"); // ensures that the amount to be donated is more than the minimum amount\r\n        require(to == founder); // ensures you dont send money to anyone not a founder\r\n       contributors[msg.sender] = 1; //it gives the value of 1 to any address that calls this contribute function successfully\r\n       each_company[to].totalRaised =each_company[to].totalRaised + msg.value; // how much has been raised\r\n       each_company[to].investors[msg.sender]= msg.value;\r\n       each_company[to].name = founder; // returns name of companu\r\n       each_company[to].totalCount++; // this retrieves total people that have contributed to that company\r\n       \r\n    \r\n    }\r\n    \r\n   \r\n    function createWithdrawalRequest( string calldata description, uint value, address payable recipient) public restrictAccess{\r\n      //gets the last indext of requests\r\n      RequestToSpendRaisedMoney storage newRequest= requestFunds[numRequests];\r\n      //increments the number of requests;\r\n       numRequests++ ;\r\n       newRequest.description=description;\r\n       newRequest.value= value;\r\n       newRequest.recipient= recipient;\r\n      // newRequest.complete= false;\r\n       newRequest.approvalsCount= 0;\r\n         }\r\n        //requestFunds.push(newRequest);\r\n    \r\n     \r\n     function approveRequest (uint id) public {\r\n        RequestToSpendRaisedMoney storage requests = requestFunds[id]; \r\n      \r\n        require(!requests.approvedTheRequest[msg.sender]); // checks to ensure that the person has NOT voted on this request before\r\n        require(contributors[msg.sender] >0); // checks that the adddress calling this function has sent money before\r\n        requests.approvedTheRequest[msg.sender] = true; //this sets that if the investor calls this function to approve the request it is counted as true\r\n        requests.approvalsCount++;\r\n\r\n     }\r\n     function finaliseRequest(uint id) public payable restrictAccess{\r\n         RequestToSpendRaisedMoney storage requests = requestFunds[id];\r\n        // AllMonies storage money =\r\n         require(!requests.complete); // confirms that the transaction hasnt been completed before\r\n         require(requests.approvalsCount> (each_company[founder].totalCount/2));\r\n         requests.complete = true; \r\n         requests.recipient.transfer(requests.value);\r\n        \r\n     }\r\n     \r\n     \r\n    }\r\n \r\n    ",
  "sourcePath": "E:\\Blockchain Project\\startup_pitch_dapp\\contracts\\startup.sol",
  "compiler": {
    "name": "solc",
    "version": "0.8.17+commit.8df45f5f.Emscripten.clang"
  },
  "schemaVersion": "3.4.11",
  "updatedAt": "2022-12-28T18:05:01.991Z",
  "devdoc": {
    "kind": "dev",
    "methods": {},
    "version": 1
  },
  "userdoc": {
    "kind": "user",
    "methods": {},
    "version": 1
  }
}