{
  "contractName": "startupInfo",
  "abi": [
    {
      "inputs": [
        {
          "internalType": "uint256",
          "name": "minimumAmount",
          "type": "uint256"
        },
        {
          "internalType": "address",
          "name": "founderAddress",
          "type": "address"
        },
        {
          "internalType": "uint256",
          "name": "fundGoals",
          "type": "uint256"
        }
      ],
      "stateMutability": "nonpayable",
      "type": "constructor"
    },
    {
      "inputs": [
        {
          "internalType": "uint256",
          "name": "",
          "type": "uint256"
        }
      ],
      "name": "companyInfo",
      "outputs": [
        {
          "internalType": "string",
          "name": "nameOfCompany",
          "type": "string"
        },
        {
          "internalType": "string",
          "name": "nameOfFounder",
          "type": "string"
        },
        {
          "internalType": "bool",
          "name": "launchedMVP",
          "type": "bool"
        },
        {
          "internalType": "bool",
          "name": "incomeGenerating",
          "type": "bool"
        },
        {
          "internalType": "uint256",
          "name": "numberOfEmployees",
          "type": "uint256"
        },
        {
          "internalType": "string",
          "name": "reasonForRaise",
          "type": "string"
        },
        {
          "internalType": "string",
          "name": "additionalInfo",
          "type": "string"
        }
      ],
      "stateMutability": "view",
      "type": "function"
    },
    {
      "inputs": [
        {
          "internalType": "address",
          "name": "",
          "type": "address"
        }
      ],
      "name": "contributors",
      "outputs": [
        {
          "internalType": "uint256",
          "name": "",
          "type": "uint256"
        }
      ],
      "stateMutability": "view",
      "type": "function"
    },
    {
      "inputs": [
        {
          "internalType": "address",
          "name": "",
          "type": "address"
        }
      ],
      "name": "each_company",
      "outputs": [
        {
          "internalType": "address",
          "name": "name",
          "type": "address"
        },
        {
          "internalType": "uint256",
          "name": "totalRaised",
          "type": "uint256"
        },
        {
          "internalType": "uint256",
          "name": "totalCount",
          "type": "uint256"
        }
      ],
      "stateMutability": "view",
      "type": "function"
    },
    {
      "inputs": [],
      "name": "founder",
      "outputs": [
        {
          "internalType": "address",
          "name": "",
          "type": "address"
        }
      ],
      "stateMutability": "view",
      "type": "function"
    },
    {
      "inputs": [],
      "name": "fundingGoal",
      "outputs": [
        {
          "internalType": "uint256",
          "name": "",
          "type": "uint256"
        }
      ],
      "stateMutability": "view",
      "type": "function"
    },
    {
      "inputs": [],
      "name": "minCheckSize",
      "outputs": [
        {
          "internalType": "uint256",
          "name": "",
          "type": "uint256"
        }
      ],
      "stateMutability": "view",
      "type": "function"
    },
    {
      "inputs": [],
      "name": "numRequests",
      "outputs": [
        {
          "internalType": "uint256",
          "name": "",
          "type": "uint256"
        }
      ],
      "stateMutability": "view",
      "type": "function"
    },
    {
      "inputs": [
        {
          "internalType": "uint256",
          "name": "",
          "type": "uint256"
        }
      ],
      "name": "requestFunds",
      "outputs": [
        {
          "internalType": "string",
          "name": "description",
          "type": "string"
        },
        {
          "internalType": "uint256",
          "name": "value",
          "type": "uint256"
        },
        {
          "internalType": "address payable",
          "name": "recipient",
          "type": "address"
        },
        {
          "internalType": "bool",
          "name": "complete",
          "type": "bool"
        },
        {
          "internalType": "uint8",
          "name": "approvalsCount",
          "type": "uint8"
        }
      ],
      "stateMutability": "view",
      "type": "function"
    },
    {
      "inputs": [
        {
          "internalType": "string",
          "name": "nameOfCompany",
          "type": "string"
        },
        {
          "internalType": "string",
          "name": "nameOfFounder",
          "type": "string"
        },
        {
          "internalType": "bool",
          "name": "launchedMVP",
          "type": "bool"
        },
        {
          "internalType": "bool",
          "name": "incomeGenerating",
          "type": "bool"
        },
        {
          "internalType": "uint256",
          "name": "numberOfEmployees",
          "type": "uint256"
        },
        {
          "internalType": "string",
          "name": "reasonForRaise",
          "type": "string"
        },
        {
          "internalType": "string",
          "name": "additionalInfo",
          "type": "string"
        }
      ],
      "name": "create_Company",
      "outputs": [],
      "stateMutability": "nonpayable",
      "type": "function"
    },
    {
      "inputs": [
        {
          "internalType": "uint256",
          "name": "minimumAmount",
          "type": "uint256"
        },
        {
          "internalType": "uint256",
          "name": "fundGoals",
          "type": "uint256"
        }
      ],
      "name": "startUpFundingAmount",
      "outputs": [],
      "stateMutability": "nonpayable",
      "type": "function"
    },
    {
      "inputs": [
        {
          "internalType": "address",
          "name": "to",
          "type": "address"
        }
      ],
      "name": "contribute",
      "outputs": [],
      "stateMutability": "payable",
      "type": "function"
    },
    {
      "inputs": [
        {
          "internalType": "string",
          "name": "description",
          "type": "string"
        },
        {
          "internalType": "uint256",
          "name": "value",
          "type": "uint256"
        },
        {
          "internalType": "address payable",
          "name": "recipient",
          "type": "address"
        }
      ],
      "name": "createWithdrawalRequest",
      "outputs": [],
      "stateMutability": "nonpayable",
      "type": "function"
    },
    {
      "inputs": [
        {
          "internalType": "uint256",
          "name": "id",
          "type": "uint256"
        }
      ],
      "name": "approveRequest",
      "outputs": [],
      "stateMutability": "nonpayable",
      "type": "function"
    },
    {
      "inputs": [
        {
          "internalType": "uint256",
          "name": "id",
          "type": "uint256"
        }
      ],
      "name": "finaliseRequest",
      "outputs": [],
      "stateMutability": "payable",
      "type": "function"
    }
  ],
  "bytecode": "0x60806040523480156200001157600080fd5b5060405162001dc038038062001dc0833981810160405281019062000037919062000102565b8281116200007c576040517f08c379a000000000000000000000000000000000000000000000000000000000815260040162000073906200017f565b60405180910390fd5b826004819055508060068190555081600360006101000a81548173ffffffffffffffffffffffffffffffffffffffff021916908373ffffffffffffffffffffffffffffffffffffffff16021790555050505062000273565b600081519050620000e5816200023f565b92915050565b600081519050620000fc8162000259565b92915050565b6000806000606084860312156200011857600080fd5b60006200012886828701620000eb565b93505060206200013b86828701620000d4565b92505060406200014e86828701620000eb565b9150509250925092565b600062000167603883620001a1565b91506200017482620001f0565b604082019050919050565b600060208201905081810360008301526200019a8162000158565b9050919050565b600082825260208201905092915050565b6000620001bf82620001c6565b9050919050565b600073ffffffffffffffffffffffffffffffffffffffff82169050919050565b6000819050919050565b7f596f75722066756e64696e6720676f616c2073686f756c64206265206d6f726560008201527f207468616e20746865206d696e696d756d20616d6f756e740000000000000000602082015250565b6200024a81620001b2565b81146200025657600080fd5b50565b6200026481620001e6565b81146200027057600080fd5b50565b611b3d80620002836000396000f3fe6080604052600436106100dd5760003560e01c80639fb42b1f1161007f578063ab2ab18011610059578063ab2ab180146102bb578063bf3bd25d146102e4578063d7d1bbdb14610325578063e7b668b41461034e576100dd565b80639fb42b1f1461020e578063a885a41a14610239578063a950628c14610278576100dd565b8063455d0243116100bb578063455d0243146101735780634d853ee51461019c57806373e888fd146101c75780637a3a0e84146101e3576100dd565b806312a141e2146100e25780631f6d49421461010d57806322d0fb9a1461014a575b600080fd5b3480156100ee57600080fd5b506100f761036a565b60405161010491906116d3565b60405180910390f35b34801561011957600080fd5b50610134600480360381019061012f919061129a565b610370565b60405161014191906116d3565b60405180910390f35b34801561015657600080fd5b50610171600480360381019061016c91906112c3565b610388565b005b34801561017f57600080fd5b5061019a60048036038101906101959190611456565b610498565b005b3480156101a857600080fd5b506101b1610546565b6040516101be919061155c565b60405180910390f35b6101e160048036038101906101dc919061129a565b61056c565b005b3480156101ef57600080fd5b506101f8610860565b60405161020591906116d3565b60405180910390f35b34801561021a57600080fd5b50610223610866565b60405161023091906116d3565b60405180910390f35b34801561024557600080fd5b50610260600480360381019061025b919061129a565b61086c565b60405161026f93929190611577565b60405180910390f35b34801561028457600080fd5b5061029f600480360381019061029a919061142d565b6108b6565b6040516102b297969594939291906115ae565b60405180910390f35b3480156102c757600080fd5b506102e260048036038101906102dd919061132f565b610b42565b005b3480156102f057600080fd5b5061030b6004803603810190610306919061142d565b610c73565b60405161031c959493929190611639565b60405180910390f35b34801561033157600080fd5b5061034c6004803603810190610347919061142d565b610d6b565b005b6103686004803603810190610363919061142d565b610ebf565b005b60045481565b60056020528060005260406000206000915090505481565b600360009054906101000a900473ffffffffffffffffffffffffffffffffffffffff1673ffffffffffffffffffffffffffffffffffffffff163373ffffffffffffffffffffffffffffffffffffffff16146103e257600080fd5b600060016000600754815260200190815260200160002090506007600081548092919061040e906118f3565b9190505550848482600001919061042692919061106b565b50828160010181905550818160020160006101000a81548173ffffffffffffffffffffffffffffffffffffffff021916908373ffffffffffffffffffffffffffffffffffffffff16021790555060008160020160156101000a81548160ff021916908360ff1602179055505050505050565b600360009054906101000a900473ffffffffffffffffffffffffffffffffffffffff1673ffffffffffffffffffffffffffffffffffffffff163373ffffffffffffffffffffffffffffffffffffffff16146104f257600080fd5b818111610534576040517f08c379a000000000000000000000000000000000000000000000000000000000815260040161052b90611693565b60405180910390fd5b81600481905550806006819055505050565b600360009054906101000a900473ffffffffffffffffffffffffffffffffffffffff1681565b60045434116105b0576040517f08c379a00000000000000000000000000000000000000000000000000000000081526004016105a7906116b3565b60405180910390fd5b600360009054906101000a900473ffffffffffffffffffffffffffffffffffffffff1673ffffffffffffffffffffffffffffffffffffffff168173ffffffffffffffffffffffffffffffffffffffff161461060a57600080fd5b6001600560003373ffffffffffffffffffffffffffffffffffffffff1673ffffffffffffffffffffffffffffffffffffffff16815260200190815260200160002081905550346000808373ffffffffffffffffffffffffffffffffffffffff1673ffffffffffffffffffffffffffffffffffffffff1681526020019081526020016000206002015461069c9190611760565b6000808373ffffffffffffffffffffffffffffffffffffffff1673ffffffffffffffffffffffffffffffffffffffff16815260200190815260200160002060020181905550346000808373ffffffffffffffffffffffffffffffffffffffff1673ffffffffffffffffffffffffffffffffffffffff16815260200190815260200160002060010160003373ffffffffffffffffffffffffffffffffffffffff1673ffffffffffffffffffffffffffffffffffffffff16815260200190815260200160002081905550600360009054906101000a900473ffffffffffffffffffffffffffffffffffffffff166000808373ffffffffffffffffffffffffffffffffffffffff1673ffffffffffffffffffffffffffffffffffffffff16815260200190815260200160002060000160006101000a81548173ffffffffffffffffffffffffffffffffffffffff021916908373ffffffffffffffffffffffffffffffffffffffff1602179055506000808273ffffffffffffffffffffffffffffffffffffffff1673ffffffffffffffffffffffffffffffffffffffff1681526020019081526020016000206003016000815480929190610858906118f3565b919050555050565b60065481565b60075481565b60006020528060005260406000206000915090508060000160009054906101000a900473ffffffffffffffffffffffffffffffffffffffff16908060020154908060030154905083565b600281815481106108c657600080fd5b90600052602060002090600602016000915090508060000180546108e990611890565b80601f016020809104026020016040519081016040528092919081815260200182805461091590611890565b80156109625780601f1061093757610100808354040283529160200191610962565b820191906000526020600020905b81548152906001019060200180831161094557829003601f168201915b50505050509080600101805461097790611890565b80601f01602080910402602001604051908101604052809291908181526020018280546109a390611890565b80156109f05780601f106109c5576101008083540402835291602001916109f0565b820191906000526020600020905b8154815290600101906020018083116109d357829003601f168201915b5050505050908060020160009054906101000a900460ff16908060020160019054906101000a900460ff1690806003015490806004018054610a3190611890565b80601f0160208091040260200160405190810160405280929190818152602001828054610a5d90611890565b8015610aaa5780601f10610a7f57610100808354040283529160200191610aaa565b820191906000526020600020905b815481529060010190602001808311610a8d57829003601f168201915b505050505090806005018054610abf90611890565b80601f0160208091040260200160405190810160405280929190818152602001828054610aeb90611890565b8015610b385780601f10610b0d57610100808354040283529160200191610b38565b820191906000526020600020905b815481529060010190602001808311610b1b57829003601f168201915b5050505050905087565b60006040518060e001604052808981526020018881526020018715158152602001861515815260200185815260200184815260200183815250905060028190806001815401808255809150506001900390600052602060002090600602016000909190919091506000820151816000019080519060200190610bc59291906110f1565b506020820151816001019080519060200190610be29291906110f1565b5060408201518160020160006101000a81548160ff02191690831515021790555060608201518160020160016101000a81548160ff0219169083151502179055506080820151816003015560a0820151816004019080519060200190610c499291906110f1565b5060c0820151816005019080519060200190610c669291906110f1565b5050505050505050505050565b6001602052806000526040600020600091509050806000018054610c9690611890565b80601f0160208091040260200160405190810160405280929190818152602001828054610cc290611890565b8015610d0f5780601f10610ce457610100808354040283529160200191610d0f565b820191906000526020600020905b815481529060010190602001808311610cf257829003601f168201915b5050505050908060010154908060020160009054906101000a900473ffffffffffffffffffffffffffffffffffffffff16908060020160149054906101000a900460ff16908060020160159054906101000a900460ff16905085565b60006001600083815260200190815260200160002090508060030160003373ffffffffffffffffffffffffffffffffffffffff1673ffffffffffffffffffffffffffffffffffffffff16815260200190815260200160002060009054906101000a900460ff1615610ddb57600080fd5b6000600560003373ffffffffffffffffffffffffffffffffffffffff1673ffffffffffffffffffffffffffffffffffffffff1681526020019081526020016000205411610e2757600080fd5b60018160030160003373ffffffffffffffffffffffffffffffffffffffff1673ffffffffffffffffffffffffffffffffffffffff16815260200190815260200160002060006101000a81548160ff02191690831515021790555080600201601581819054906101000a900460ff1680929190610ea29061193c565b91906101000a81548160ff021916908360ff160217905550505050565b600360009054906101000a900473ffffffffffffffffffffffffffffffffffffffff1673ffffffffffffffffffffffffffffffffffffffff163373ffffffffffffffffffffffffffffffffffffffff1614610f1957600080fd5b60006001600083815260200190815260200160002090508060020160149054906101000a900460ff1615610f4c57600080fd5b6002600080600360009054906101000a900473ffffffffffffffffffffffffffffffffffffffff1673ffffffffffffffffffffffffffffffffffffffff1673ffffffffffffffffffffffffffffffffffffffff16815260200190815260200160002060030154610fbc91906117b6565b8160020160159054906101000a900460ff1660ff1611610fdb57600080fd5b60018160020160146101000a81548160ff0219169083151502179055508060020160009054906101000a900473ffffffffffffffffffffffffffffffffffffffff1673ffffffffffffffffffffffffffffffffffffffff166108fc82600101549081150290604051600060405180830381858888f19350505050158015611066573d6000803e3d6000fd5b505050565b82805461107790611890565b90600052602060002090601f01602090048101928261109957600085556110e0565b82601f106110b257803560ff19168380011785556110e0565b828001600101855582156110e0579182015b828111156110df5782358255916020019190600101906110c4565b5b5090506110ed9190611177565b5090565b8280546110fd90611890565b90600052602060002090601f01602090048101928261111f5760008555611166565b82601f1061113857805160ff1916838001178555611166565b82800160010185558215611166579182015b8281111561116557825182559160200191906001019061114a565b5b5090506111739190611177565b5090565b5b80821115611190576000816000905550600101611178565b5090565b60006111a76111a284611713565b6116ee565b9050828152602081018484840111156111bf57600080fd5b6111ca84828561184e565b509392505050565b6000813590506111e181611aab565b92915050565b6000813590506111f681611ac2565b92915050565b60008135905061120b81611ad9565b92915050565b60008083601f84011261122357600080fd5b8235905067ffffffffffffffff81111561123c57600080fd5b60208301915083600182028301111561125457600080fd5b9250929050565b600082601f83011261126c57600080fd5b813561127c848260208601611194565b91505092915050565b60008135905061129481611af0565b92915050565b6000602082840312156112ac57600080fd5b60006112ba848285016111d2565b91505092915050565b600080600080606085870312156112d957600080fd5b600085013567ffffffffffffffff8111156112f357600080fd5b6112ff87828801611211565b9450945050602061131287828801611285565b9250506040611323878288016111e7565b91505092959194509250565b600080600080600080600060e0888a03121561134a57600080fd5b600088013567ffffffffffffffff81111561136457600080fd5b6113708a828b0161125b565b975050602088013567ffffffffffffffff81111561138d57600080fd5b6113998a828b0161125b565b96505060406113aa8a828b016111fc565b95505060606113bb8a828b016111fc565b94505060806113cc8a828b01611285565b93505060a088013567ffffffffffffffff8111156113e957600080fd5b6113f58a828b0161125b565b92505060c088013567ffffffffffffffff81111561141257600080fd5b61141e8a828b0161125b565b91505092959891949750929550565b60006020828403121561143f57600080fd5b600061144d84828501611285565b91505092915050565b6000806040838503121561146957600080fd5b600061147785828601611285565b925050602061148885828601611285565b9150509250929050565b61149b816117f9565b82525050565b6114aa816117e7565b82525050565b6114b98161180b565b82525050565b60006114ca82611744565b6114d4818561174f565b93506114e481856020860161185d565b6114ed81611a22565b840191505092915050565b600061150560388361174f565b915061151082611a33565b604082019050919050565b600061152860138361174f565b915061153382611a82565b602082019050919050565b61154781611837565b82525050565b61155681611841565b82525050565b600060208201905061157160008301846114a1565b92915050565b600060608201905061158c60008301866114a1565b611599602083018561153e565b6115a6604083018461153e565b949350505050565b600060e08201905081810360008301526115c8818a6114bf565b905081810360208301526115dc81896114bf565b90506115eb60408301886114b0565b6115f860608301876114b0565b611605608083018661153e565b81810360a083015261161781856114bf565b905081810360c083015261162b81846114bf565b905098975050505050505050565b600060a082019050818103600083015261165381886114bf565b9050611662602083018761153e565b61166f6040830186611492565b61167c60608301856114b0565b611689608083018461154d565b9695505050505050565b600060208201905081810360008301526116ac816114f8565b9050919050565b600060208201905081810360008301526116cc8161151b565b9050919050565b60006020820190506116e8600083018461153e565b92915050565b60006116f8611709565b905061170482826118c2565b919050565b6000604051905090565b600067ffffffffffffffff82111561172e5761172d6119f3565b5b61173782611a22565b9050602081019050919050565b600081519050919050565b600082825260208201905092915050565b600061176b82611837565b915061177683611837565b9250827fffffffffffffffffffffffffffffffffffffffffffffffffffffffffffffffff038211156117ab576117aa611966565b5b828201905092915050565b60006117c182611837565b91506117cc83611837565b9250826117dc576117db611995565b5b828204905092915050565b60006117f282611817565b9050919050565b600061180482611817565b9050919050565b60008115159050919050565b600073ffffffffffffffffffffffffffffffffffffffff82169050919050565b6000819050919050565b600060ff82169050919050565b82818337600083830152505050565b60005b8381101561187b578082015181840152602081019050611860565b8381111561188a576000848401525b50505050565b600060028204905060018216806118a857607f821691505b602082108114156118bc576118bb6119c4565b5b50919050565b6118cb82611a22565b810181811067ffffffffffffffff821117156118ea576118e96119f3565b5b80604052505050565b60006118fe82611837565b91507fffffffffffffffffffffffffffffffffffffffffffffffffffffffffffffffff82141561193157611930611966565b5b600182019050919050565b600061194782611841565b915060ff82141561195b5761195a611966565b5b600182019050919050565b7f4e487b7100000000000000000000000000000000000000000000000000000000600052601160045260246000fd5b7f4e487b7100000000000000000000000000000000000000000000000000000000600052601260045260246000fd5b7f4e487b7100000000000000000000000000000000000000000000000000000000600052602260045260246000fd5b7f4e487b7100000000000000000000000000000000000000000000000000000000600052604160045260246000fd5b6000601f19601f8301169050919050565b7f596f75722066756e64696e6720676f616c2073686f756c64206265206d6f726560008201527f207468616e20746865206d696e696d756d20616d6f756e740000000000000000602082015250565b7f496e73756666696369656e7420616d6f756e7400000000000000000000000000600082015250565b611ab4816117e7565b8114611abf57600080fd5b50565b611acb816117f9565b8114611ad657600080fd5b50565b611ae28161180b565b8114611aed57600080fd5b50565b611af981611837565b8114611b0457600080fd5b5056fea2646970667358221220c9a0e0f696864e3ba222458cc0dbd100d874751f48e3ee6eb645c0b5a11b279a64736f6c63430008020033",
  "immutableReferences": {},
  "source": "//SPDX-License-Identifier: GPL-3.0\npragma solidity ^0.8.2 ; \n\n// linter warnings (red underline) about pragma version can igonored!\n\n// contract code will go here\ncontract deploymentContract {\n    startupInfo[] public deployedCampaigns;\n    \n    function createCampaign(uint minimumAmount, uint fundGoals) public {\n        startupInfo newCampaign = new startupInfo(minimumAmount, msg.sender, fundGoals) ;\n        deployedCampaigns.push(newCampaign);\n    }\n    \n    function getDeployedCampaigns() public view returns (startupInfo[] memory) {\n        return deployedCampaigns;\n    }\n}\n\ncontract startupInfo{\n    struct CompanyDetails{\n        string nameOfCompany;\n        string nameOfFounder;\n        bool launchedMVP;\n        bool incomeGenerating;\n        uint numberOfEmployees;\n        string reasonForRaise;\n        string additionalInfo;\n    \n    }\n    struct AllCompanies{\n        address name;\n        mapping(address => uint)  investors;\n        uint totalRaised;\n        uint totalCount;\n    }\n    mapping (address => AllCompanies) public each_company;\n    struct RequestToSpendRaisedMoney{\n        string description;\n        uint value;\n        address payable recipient;\n        bool complete;\n        uint8 approvalsCount;\n        mapping(address => bool) approvedTheRequest;\n      \n    }\n    //RequestToSpendRaisedMoney[] public requestFunds;\n    mapping(uint => RequestToSpendRaisedMoney) public requestFunds;\n    CompanyDetails[] public companyInfo;\n    address public founder;\n    uint public minCheckSize;\n    mapping(address => uint) public contributors; // this is same as investors, it just allows us store investors and access it in the approveRequest function\n\n    uint public fundingGoal;\n    uint public numRequests; // keeps track of number of requests\n  \n    modifier restrictAccess(){\n        require (msg.sender == founder);\n        _;\n    }\n    //this function uses the struct created earlier to get the details of the company\n   constructor  (uint minimumAmount, address founderAddress, uint fundGoals){\n         require(fundGoals > minimumAmount, \"Your funding goal should be more than the minimum amount\"); // the funding goal must be greater than the minimum check size       \n        //require(msg.sender == founder);\n        //founder = msg.sender;\n        minCheckSize =minimumAmount;\n        fundingGoal= fundGoals; \n       founder = founderAddress;\n   }\n   \n   function create_Company (string memory nameOfCompany, string memory nameOfFounder, bool  launchedMVP, bool incomeGenerating, uint numberOfEmployees, string memory reasonForRaise, string memory additionalInfo) public{\n        CompanyDetails memory newDetails = CompanyDetails({\n            nameOfCompany: nameOfCompany,\n            nameOfFounder: nameOfFounder,\n            launchedMVP: launchedMVP,\n            incomeGenerating: incomeGenerating,\n            numberOfEmployees: numberOfEmployees,\n            reasonForRaise: reasonForRaise,\n    \n            additionalInfo: additionalInfo\n        });\n        companyInfo.push(newDetails);\n        //founder = msg.sender;\n        \n    }\n\n    function startUpFundingAmount(uint minimumAmount ,  uint fundGoals) public restrictAccess{\n        require(fundGoals > minimumAmount, \"Your funding goal should be more than the minimum amount\"); // the funding goal must be greater than the minimum check size       \n        //require(msg.sender == founder);\n        //founder = msg.sender;\n        minCheckSize =minimumAmount;\n        fundingGoal= fundGoals ;\n\n    }\n\n    function contribute(address to) public payable{\n        require(msg.value > minCheckSize, \"Insufficient amount\"); // ensures that the amount to be donated is more than the minimum amount\n        require(to == founder); // ensures you dont send money to anyone not a founder\n       contributors[msg.sender] = 1; //it gives the value of 1 to any address that calls this contribute function successfully\n       each_company[to].totalRaised =each_company[to].totalRaised + msg.value; // how much has been raised\n       each_company[to].investors[msg.sender]= msg.value;\n       each_company[to].name = founder; // returns name of companu\n       each_company[to].totalCount++; // this retrieves total people that have contributed to that company\n       \n    \n    }\n    \n   \n    function createWithdrawalRequest( string calldata description, uint value, address payable recipient) public restrictAccess{\n      //gets the last indext of requests\n      RequestToSpendRaisedMoney storage newRequest= requestFunds[numRequests];\n      //increments the number of requests;\n       numRequests++ ;\n       newRequest.description=description;\n       newRequest.value= value;\n       newRequest.recipient= recipient;\n      // newRequest.complete= false;\n       newRequest.approvalsCount= 0;\n         }\n        //requestFunds.push(newRequest);\n    \n     \n     function approveRequest (uint id) public {\n        RequestToSpendRaisedMoney storage requests = requestFunds[id]; \n      \n        require(!requests.approvedTheRequest[msg.sender]); // checks to ensure that the person has NOT voted on this request before\n        require(contributors[msg.sender] >0); // checks that the adddress calling this function has sent money before\n        requests.approvedTheRequest[msg.sender] = true; //this sets that if the investor calls this function to approve the request it is counted as true\n        requests.approvalsCount++;\n\n     }\n     function finaliseRequest(uint id) public payable restrictAccess{\n         RequestToSpendRaisedMoney storage requests = requestFunds[id];\n        // AllMonies storage money =\n         require(!requests.complete); // confirms that the transaction hasnt been completed before\n         require(requests.approvalsCount> (each_company[founder].totalCount/2));\n         requests.complete = true; \n         requests.recipient.transfer(requests.value);\n        \n     }\n     \n     \n    }\n \n    ",
  "sourcePath": "/home/nnamdi/startup_contract/contracts/pitch_drive.sol",
  "compiler": {
    "name": "solc",
    "version": "0.8.2+commit.661d1103.Emscripten.clang"
  },
  "schemaVersion": "3.4.6",
  "updatedAt": "2022-03-15T20:17:13.481Z",
  "devdoc": {
    "kind": "dev",
    "methods": {},
    "version": 1
  },
  "userdoc": {
    "kind": "user",
    "methods": {},
    "version": 1
  }
}